:400000000080002011000000D9060000D906000008B5044B1A6803F53F5302331A6000F063FB00BFFA46004010B5054C237833B9044B13B10448AFF300800123237010BD5B
:400040005081FF1F00000000D00A0000084B10B51BB108490848AFF300800848036803B910BD074B002BFBD0BDE81040184700BF000000005481FF1FD00A0000C880FF1F3E
:4000800000000000F0B587B00746224B186804909A88ADF8142098680390D868029000248DF80740042506AE06F8125D012332461E21184600F084F9012332461F2118461C
:4000C00000F07EF901230DF107021E211D2000F077F901230DF107021E211D2000F070F9062304AA0921204600F06AF92B4602AA0121204600F064F92B4603AA052120463C
:4001000000F05EF92B463A460F21204600F058F907B0F0BDD40A000070B582B001248DF807408DF8064002268DF8056000258DF8005050238DF8013023460DF10702294647
:40014000204600F03DF933466A460421204600F037F923460DF106022146204600F030F923460DF106022946204600F013F90E4800F09AFB9DF8060000F0A4FB00F0B2FBE8
:400180009DF806301BB9204600F0D8FBFEE70A2000F0BEFB01230DF105021946184600F00FF902B070BD00BFE80A000008B5012000F0C4FB08BD00BF08B5002000F0BEFBBA
:4001C00008BD00BF10B584B000248DF80F40304B1868029062B600F04BFB00F063FB0C2000F0BAFB642000F093FB04AA802302F8093D01232146204600F0E2F802A8FFF7A2
:4002000041FF0121084600F04FF8FFF785FF01230DF10F020321184600F0BCF81D4800F043FB9DF80F0000F04DFB00F05BFB9DF80F301D2B27D8DFE803F0132626262626A9
:4002400026262626262626262626262626260F2626191F261F1F1F1F0F4800F025FB12E00E4800F021FBFFF757FF0CE00C4800F01BFBFFF79BFF06E00A4800F015FBFFF72A
:400280009BFFFFF749FFFA2000F042FBBFE700BFE40A0000040B00001C0B0000300B0000480B00005C0B0000F8B504460F46051D114B03EB8505AE1C80000130C0000130F3
:4002C0000A460021C0B200F091F8EF70012F02D11323AB700EE0022F06D10434064B03EB84042223A37005E00434034B03EB84044223A3703046F8BD7081FF1FF0B583B037
:400300001746089E099D920042EAC00003430A0A8DF804208DF805108DF8063000F076FA002000F0B3FA00240BE002AB234413F8040C00F059FA00F04BFA10F0080FFAD08A
:400340000134022CF1D900F061FA77B1002419E0FF2000F049FA00F03BFA10F0080FFAD000F04EFA3055013400E00024AC42EFD30AE0305D00F038FA00F02AFA10F0080FFE
:40038000FAD00134AC42F4D3012000F07FFA03B0F0BD00BF9AB1F0B583B073B117461C460E46054600F058F838B90194009700231A4631462846FFF7A1FF03B0F0BD7047C9
:4003C0009AB1F0B583B073B117461C460E46054600F042F838B9019400970023012231462846FFF78BFF03B0F0BD704770B582B004460D46164600F02FF858BBE40044F0BD
:4004000004042B0A8DF804308DF805508DF8064000F0FCF9002000F039FA00240BE002AB234413F8040C00F0DFF900F0D1F910F0080FFAD00134022CF1D900F0E7F93046E5
:4004400000F0D2F900F0C4F910F0080FFAD0012000F01CFA02B070BD04280FD008280FD00C280FD010280FD014280FD018280FD01C280FD01F280FD90120704701207047AD
:4004800001207047012070470120704701207047012070470120704700207047FEE700BFF0B40022174611E050F82760F3B226F0FF0608E001EB420511F812406D78A555B9
:4004C0000132013BDBB2002BF4D10137062FEBD9F0BC7047064B1B78DBB203F00701054A11701B09013213704422034B1A707047CF0100496E5800407658004008B50A4637
:40050000002100F0DCFA08BD38B50B22244B1A80182202331A70022203F27E231A7008224FF040231A70032103F5007319701D4B1B78DBB21C490B701C4B1A8041F2512232
:40054000023B1A80002419250CE0194B1B7803F0010343EA440404F003044FF4F07000F053FA013D0DB1032CEFD115B90320FFF795FF104B4FF480721A8007221A700022B3
:400580000D490A704820023108701A700222033B1A700A4A137843F00103137038BD00BF8040004008010049A146004022420040254200400440004006400040A2430040A2
:4005C00008B500F071FA08BD38B572B6334A137843F00403137000240CE0314D630019194A0011462A44084691882858FFF786FF0134E4B2082CF0D900240BE02849A300C5
:400600001819420088188022C16B806BFFF7D8FF0134E4B2002CF1D022494FF09040FFF73FFF214A137843F0020313701032137843F0020313701D4C237843F04003237075
:40064000A2F58632513A137843F0100313700A2217491848FFF7B4FF082217491748FFF7AFFF082216491748FFF7AAFF164A137843F008031370154D61232B70FFF744FF3D
:4006800081232B700122124B1A70FFF723FF0E2221461048FFF794FF38BD00BFE8460040740B00001C00004803500140A0430040D0010048C0510040DC0100481251004073
:4006C000E401004822510040224300400048004004000840B043004008B500F0B9F903680C2B00D1FEE7FEE708B5104E104D16E029686B68AC68002204E051F8040B43F853
:40070000040B0432A242F8D1E868002203E0002143F8041B04328242F9D11035013E002EE6D100F09BF9FFF74DFDFEE701000000F00B000008B5104A104B1A60104A136864
:4007400043F40073136000230AE0032B03D80D4A52F8231000E00C490C4A42F8231001332F2BF2D90A4B1A780A4B1A70074A0A4B1A60FFF729FF08BD0004FA050CED00E07C
:4007800014ED00E000000000D90600000080FF1FBC760040C080FF1F08ED00E008B500F03BF90A4A137843F0200313700132137843F0100313700132137843F0100313708F
:4007C00000F02EF900F096F808BD00BF95650040014B1878704700BF66650040014B1878704700BF67650040034B1B7813F0040FFAD0024B187070476665004045650040A9
:40080000014B1878704700BF5565004008B501E00A4B1B780A4B1B7813F0200FF8D100F0FBF8084B1A7842F001021A701A7802F0FE021A7000F0F4F808BD00BF5565004014
:40084000676500409565004008B50F22064B1A70FFF7DCFFFFF7BCFFFFF7C0FF0023034A13700132137008BD856500408665004008B5054B1B7823B9FFF7E6FF0122024BA8
:400880001A70FFF78BFF08BD6C81FF1F044A137803F0F703C00000F00800184310707047C0510040704700BF38B505460078012404E000F051F8285D0134E4B20028F8D154
:4008C00038BD00BF38B504460309054DE85C00F043F804F00F04285D00F03EF838BD00BFB80B000008B50D2000F036F80A2000F033F808BD054A137843F00103137010322F
:40090000137843F001031370704700BFA243004010B5044605E0084B186800F075F8A4F50044B4F5004FF6D8034B586800FB04F000F06AF810BD00BFD880FF1F044A1378E6
:4009400003F0FD03400000F002001843107070472051004000000000FEB5494652465B460EB40746244909688A46244A12682448022100F059F8030020480068C01820490B
:4009800000F052F8143883460121C9430C460125002600F041F8814651460B7823400B705846013000F030F83800F04028400B78234003430B70584600F026F80136072EBE
:4009C000F2D9002001300138013001200B78234003430B705846043000F016F8484600F01FF800BF00BF00BF0EBC894692469B46FEBD00BFAFF30080CC80FF1FE480FF1F2D
:400A000000C20100000000000230800803D000BF01380046FCD17047EFF3108072B6704780F31088704700BF002902D0B0FBF1F0704708B14FF0FF3000F008B80029F8D0CC
:400A40000246B0FBF1F000FB11217047704700BF014B1868704700BF4881FF1F0E4B70B51E460E4C0025E41AA410A54204D056F8253098470135F8E700F0A8F8084B094C82
:400A80001E46E41AA4100025A54204D056F8253098470135F8E770BDD80B0000D80B0000D80B0000E00B000010B5431E0A44914204D011F8014B03F8014FF8E710BD034638
:400AC0000244934202D003F8011BFAE7704700000000000000DEADBEEF000000FFFFFF00C0A80146C0A88946536F636B65742030204D6F6465205265676973746572203D1F
:400B000020307800536F636B6574203020537461747573203D20307800000000536F636B6574206C697374656E696E670D0A00004F70656E696E672074686520736F636BFD
:400B400065740D0A0000000048616E646C696E672073657373696F6E0D0A0000436C6F73696E672074686520736F636B65740D0A0000000000510040100030510040400093
:400B8000F0510040100000000140001000140140800000150140000700400140000A004C0140000200500140200000008014014050010048800000003031323334353637CC
:400BC000383941424344454600430000F8B500BFF8BC08BC9E4670474D00000035070000F8B500BFF8BC08BC9E46704729000000000C0000C880FF1F8800000058000000AA
:400C000000000000675000400C000000070000000000E02EC05D00001800000000366E010000000000000000000000000000000000000000000000000000000000000000C2
:400C4000C90B0000000000000000000000000000000000000000000000000000000000000000000000000000000000000000000000000000000000000000000000000000A0
:400C8000E880FF1F000000000000000000000000000000000000000000000000000000000000000000000000000000000000000000000000000000000000000000000000AE
:400CC00000000000000000000000000000000000000000000000000000000000000000000000000000000000000000000000000000000000000000000000000000000000F4
:400D000000000000000000000000000000000000000000000000000000000000000000000000000000000000000000000000000000000000000000000000000000000000B3
:400D40000000000000000000000000000000000000000000000000000000000000000000000000000000000000000000000000000000000000000000000000000000000073
:400D80000000000000000000000000000000000000000000000000000000000000000000000000000000000000000000000000000000000000000000000000000000000033
:020000040003F7
:0200000480007A
:4000000001520040016500403D150140301601401F1701400A490140025001406001850F0402051406020D020E2917151D841E421F2024022514269C27082E012F08351006
:40004000368837013D203E063F8045A047084E0A4F0455025660574466106E056F1D76028A028D048F219641970699109A109E629F15A120A514A615A704AB21B240B3100D
:40008000B404C0F0C2F0C470CAA0CCF0CEF0D070D230D820E210E420EE40004005330680074C084209550A080BAA0DE01002120D146215021614170D181119491A221B967F
:4000C0001C8D200D2280248D288D2C8D300F32803470350F37F039803A223B203E045409580459045B045F01860194029A03AA03B403D440D804DB04DF0100040510066096
:40010000072009240D020E29112012301602171518041D36254026202708351037083DA85E425F14610463096702C074C2F6C4F2CC60CE70D6F0D81E170172207C808B0175
:400140008C809A20B620C420DC80DE2010011A01049A000001980002562109D884020000609800020A13106407FC3803843800C0049A80008000040084020098000000005D
:4001800008007F13020F80E0080000A00000510032061000050EDCBF3DFFFFFF2200F008040000000000022404040404000000010000C00040011011C00100114001400140
:4001C000000000000000000000000000000000009800029D8500050000000000000B0B00000000000002020000000000000000000000000000000000000000000000000024
:4002000000000000000000000000000000000000000000000000000000000000000000000000000000000000000000000000000000000000000000000000000000000000BE
:40024000000000000000000000000000000000000000000000000000000000000000000000000000000000000000000000000000000000000000000000000000000000007E
:40028000000000000000000000000000000000000000000000000000000000000000000000000000000000000000000000000000000000000000000000000000000000003E
:4002C00000000000000000000000000000000000000000000000000000000000000000000000000000000000000000000000000000000000000000000000000000000000FE
:0200000490006A
:0400000000004005B7
:0200000490105A
:04000000BC90ACAF55
:0200000490303A
:02000000B63711
:0200000490402A
:4000000000000000000000000000000000000000000000000000000000000000000000000000000000000000000000000000000000000000000000000000000000000000C0
:400040000000000000000000000000000000000000000000000000000000000000000000000000000000000000000000000000000000000000000000000000000000000080
:400080000000000000000000000000000000000000000000000000000000000000000000000000000000000000000000000000000000000000000000000000000000000040
:4000C0000000000000000000000000000000000000000000000000000000000000000000000000000000000000000000000000000000000000000000000000000000000000
:0200000490501A
:0C00000000012E16106900012E1AC6A087
:00000001FF