:4000000000800020110000005D0900005D09000008B5044B1A6803F53F5302331A6000F0BDFC00BFFA46004010B5054C237833B9044B13B10448AFF300800123237010BDF2
:40004000B081FF1F0000000084160000084B10B51BB108490848AFF300800848036803B910BD074B002BFBD0BDE81040184700BF00000000B481FF1F84160000C880FF1FFE
:400080000000000008B50122024B1A7000F0ACFD08BD00BFCC81FF1F30B5B3B064220021684600F088FE88222349684600F0BEFE224C606800F0F6F905461023204A01463A
:4000C000606800F03FFA05F1100189B2606800F0F9F92021606800F0D7F9606800F0E2F90546684600F0C6FE03466A462946606800F028FA684600F0BDFE291889B260683B
:4001000000F0E0F92021606800F0BEF9606800F0C9F9054688230B4A0146606800F012FA05F1880189B2606800F0CCF92021606800F0AAF933B030BD9C160000CC81FF1FB6
:40014000DC160000F016000010B584B00446124B186802909A88ADF80C2098680190D8680090062302AA0921002000F03DFA04236A460121002000F037FA04230DEB0302DD
:400180000521002000F030FA042322460F21002000F02AFA04B010BD8816000008B5024800F0DCFC08BD00BF7C17000010B50A4800F0D4FC094C0821606800F065F901215A
:4001C000606800F061F90221606800F05DF9044800F0C4FC10BD00BF94170000CC81FF1FAC170000F8B500F0F7FCC043C0B200F0E7FC114B586800F073F9E0B104460E4DD5
:40020000686800F07DF9064605F1080723463A460146686800F09CF9A11989B2686800F07FF92C44002323723B46044A4FF48061034800F0C9FDF8BDCC81FF1FC81700006A
:40024000E085FF1F10B582B04FF4806200215A4800F0B1FD594B18680190594800F0EAFC62B600F05FFC00F077FC0C2000F0F0FC642000F08FFC00F0AFF801A8FFF764FFEC
:4002800001221821002000F019FA5021002000F0ABF84C4B586018B94B4800F05FFCFEE7022100F0F1F8474C0021606800F056F90121606800F052F9444800F04FFC414B89
:4002C0001B7813F0FF0FFAD03E4C002020700122172100F0F3F9606800F048F984F8080494F8083413F0010F10D001220221104600F0E4F9FFF752FF00222C21012000F0B3
:40030000DDF906222C21012000F0D8F92D4B93F8083413F0020F10D002221146012000F0CDF9FFF743FF00222C21012000F0C6F901222C21104600F0C1F9224B93F80834F0
:4003400013F0040F12D004220221012000F0B6F9FFF748FF00222C21012000F0AFF916222C21012000F0AAF9FFF796FE154B93F8083413F0100FA2D010220221012000F033
:400380009DF900222C21012000F098F906222C21012000F093F90E4800F0E0FB4FF4806422460021044800F006FD22460021094800F001FD83E700BFE085FF1F9816000052
:4003C00085000000CC81FF1FCC170000E817000004180000D481FF1F08B580220021084600F06CF908BD00BF38B50D4610231A46012100F00BF80446294600F033F8012117
:40040000204600F041F8204638BD00BF2DE9F04144000444A500124E2E447478D4B907281BD896460A4602F00F01B17086F803E033710021307A00F041F9F2781F21307A91
:4004400000F03CF932791E21307A00F037F93046BDE8F0810020BDE8F0810020BDE8F081CC80FF1F00B583B0C1800B0A8DF804308DF80510022301AA0421007A00F0B4F8A5
:4004800003B05DF804FB00BF10B504460A460121007A00F013F90121207A00F0DDF80028F9D110BD38B505462421007A00F0D4F804462521287A00F0CFF840EA042080B223
:4004C00038BD00BF38B504460D460A0A2421007A00F0F4F8EAB22521207A00F0EFF838BD38B505462621007A00F0B6F804462721287A00F0B1F840EA042080B238BD00BF2F
:4005000038B505462821007A00F0A6F804462921287A00F0A1F840EA042080B238BD00BF38B504460D460A0A2821007A00F0C6F8EAB22921207A00F0C1F840212046FFF74A
:40054000A3FF38BD08B5407A00F04EF808BD00BF08B5807A00F010F808BD00BF08B50A46C1722C21007A00F0A9F808BD08B50221007A00F071F808BD70B582B016461D4695
:40058000C0000B0A8DF804308DF805108DF8060000F096FA002000F0D3FA00240BE002AB234413F8040C00F079FA00F06BFA10F0080FFAD00134022CF1D900F081FA002498
:4005C0000BE0002000F06AFA00F05CFA10F0080FFAD000F06FFA30550134AC42F1D3012000F0AEFA02B070BD70B582B016461D46C00040F004030A0A8DF804208DF80510B4
:400600008DF8063000F05CFA002000F099FA00240BE002AB234413F8040C00F03FFA00F031FA10F0080FFAD00134022CF1D900F047FA002408E0305D00F030FA00F022FA96
:4006400010F0080FFAD00134AC42F4D3012000F077FA02B070BD00BF10B582B0C0000B0A8DF804308DF805108DF8060000F028FA002000F065FA00240BE002AB234413F836
:40068000040C00F00BFA00F0FDF910F0080FFAD00134022CF1D900F013FA002000F0FEF900F0F0F910F0080FFAD000F003FA0446012000F045FA204602B010BD30B583B0FF
:4006C0001546C00040F004000B0A8DF804308DF805108DF8060000F0F3F9002000F030FA00240BE002AB234413F8040C00F0D6F900F0C8F910F0080FFAD00134022CF1D9E6
:4007000000F0DEF9284600F0C9F900F0BBF910F0080FFAD0012000F013FA03B030BD00BFFEE700BFF0B40022174611E050F82760F3B226F0FF0608E001EB420511F8124013
:400740006D78A5550132013BDBB2002BF4D10137072FEBD9F0BC7047064B1B78DBB203F00701054A11701B09013213704422034B1A707047CF0100496E58004076580040E1
:4007800008B50A46002100F016FB08BD38B50B22244B1A80182202331A70022203F27E231A7008224FF040231A70032103F5007319701D4B1B78DBB21C490B701C4B1A800E
:4007C00041F25122023B1A80002419250CE0194B1B7803F0010343EA440404F003044FF4F07000F08DFA013D0DB1032CEFD115B90320FFF795FF104B4FF480721A800722FD
:400800001A7000220D490A704820023108701A700222033B1A700A4A137843F00103137038BD00BF8040004008010049A14600402242004025420040044000400640004098
:40084000A243004008B500F0ABFA08BD38B572B6334A137843F00403137000240CE0314D630019194A0011462A44084691882858FFF786FF0134E4B2082CF0D900240BE0F7
:400880002849A3001819420088188022C16B806BFFF7D8FF0134E4B2002CF1D022494FF09040FFF73FFF214A137843F0020313701032137843F0020313701D4C237843F0B5
:4008C00040032370A2F58632513A137843F0100313700A2217491848FFF7B4FF082217491748FFF7AFFF082216491748FFF7AAFF164A137843F008031370154D61232B701E
:40090000FFF744FF81232B700122124B1A70FFF723FF0E2221461048FFF794FF38BD00BFE8460040101800002000004803500140A0430040D8010048C0510040E40100489D
:4009400012510040EC01004822510040224300400048004004000840B043004008B500F0F3F903680C2B00D1FEE7FEE708B5094B1A681044084BC31A802B02DC054B186002
:4009800005E000F0E1F90C2303604FF0FF32104608BD00BF2C81FF1FE889FF1F08B5104E104D16E029686B68AC68002204E051F8040B43F8040B0432A242F8D1E86800226F
:4009C00003E0002143F8041B04328242F9D11035013E002EE6D100F0BDF9FFF733FCFEE701000000AC18000008B5104A104B1A60104A136843F40073136000230AE0032BDE
:400A000003D80D4A52F8231000E00C490C4A42F8231001332F2BF2D90A4B1A780A4B1A70074A0A4B1A60FFF711FF08BD0004FA050CED00E014ED00E0000000005D090000E2
:400A40000080FF1FBC760040C080FF1F08ED00E008B500F05DF90A4A137843F0200313700132137843F0100313700132137843F01003137000F050F900F07EF808BD00BF47
:400A800095650040014B1878704700BF66650040014B1878704700BF67650040034B1B7813F0040FFAD0024B187070476665004045650040014B1878704700BF55650040B3
:400AC00008B501E00A4B1B780A4B1B7813F0200FF8D100F01DF9084B1A7842F001021A701A7802F0FE021A7000F016F908BD00BF55650040676500409565004008B50F2224
:400B0000064B1A70FFF7DCFFFFF7BCFFFFF7C0FF0023034A13700132137008BD856500408665004008B5054B1B7823B9FFF7E6FF0122024B1A70FFF78BFF08BDD585FF1FD2
:400B4000044A137803F0F703C00000F00800184310707047C0510040704700BF38B505460078012404E000F073F8285D0134E4B20028F8D138BD00BF054A137843F0010384
:400B800013701032137843F001031370704700BFA243004010B5044605E0084B186800F0AFF8A4F50044B4F5004FF6D8034B586800FB04F000F0A4F810BD00BF3C81FF1F9F
:400BC000044A137803F0FD03400000F0020018431070704720510040024B1878C0F34000704700BF21510040024B1878C0F34010704700BF8C450040014B1B68D866704791
:400C000008ED00E04001C0B2014B1870704700BF0BE400E04FF40062014B1A60704700BF00E100E04FF40062014B1A60704700BF80E100E010B50446FFF7F4FF2046FFF7FB
:400C4000DBFF0720FFF7DEFFFFF7E4FF10BD00BFFEB5494652465B460EB40746244909688A46244A12682448022100F059F8030020480068C018204900F052F814388346E8
:400C80000121C9430C460125002600F041F8814651460B7823400B705846013000F030F83800F04028400B78234003430B70584600F026F80136072EF2D9002001300138B5
:400CC000013001200B78234003430B705846043000F016F8484600F01FF800BF00BF00BF0EBC894692469B46FEBD00BFAFF300803081FF1F4881FF1F00C2010000000000F2
:400D00000230800803D000BF01380046FCD17047EFF3108072B6704780F31088704700BF002902D0B0FBF1F0704708B14FF0FF3000F008B80029F8D00246B0FBF1F000FBBD
:400D400011217047704700BF014B1868704700BFAC81FF1F0E4B70B51E460E4C0025E41AA410A54204D056F8253098470135F8E700F08AFD084B094C1E46E41AA4100025C8
:400D8000A54204D056F8253098470135F8E770BD9418000094180000941800009C18000010B5431E0A44914204D011F8014B03F8014FF8E710BD03460244934202D003F864
:400DC000011BFAE7704700000CB430B5164B0C1E9DB01D6804DA8B232B604FF0FF301EE04FF40273ADF814300CBF234604F1FF33049307934FF6FF7302900690ADF81630C3
:400E0000209A21AB02A92846019300F095F8431CBCBF8B232B6014B1029B00221A701DB0BDE8304002B07047AC81FF1F0EB400B54FF402719CB0ADF814106FF000410491D4
:400E400007914FF6FF711DAB02900690084853F8042BADF81610006802A9019300F06CF8029B00221A701CB05DF804EB03B07047AC81FF1F034613F8012B002AFBD1181AEF
:400E8000013870472DE9F0478E6882469E420C46914698463ED88A8912F4906F3AD02568096902236F1A656905EB450595FBF3F57B1C43449D4238BF1D4653050FD52946E9
:400EC00000F040FB064698B13A462169FFF768FFA38923F4906343F08003A38113E02A4600F08EFB064670B92169504600F0DEFA0C23CAF80030A3894FF0FF3043F0400351
:400F0000A381BDE8F08726613E44266046466561ED1BA560464528BF464649463246206800F0A8FAA36800209B1BA36023681E442660BDE8F08700002DE9F04F9DB00393B9
:400F40008B8980461C060D4616460DD50B695BB9402100F0F7FA2860286118B90C23C8F80030CDE040236B610023099320238DF82930DFF89CB130238DF82A3037463C4608
:400F800014F8013B1BB9B7EB060910D003E0252BF9D02746F3E74B46324629464046FFF771FF013000F0A780099B4B4409933B78002B00F0A08000234FF0FF320493079314
:400FC000059206938DF853301A930126052221784E4800F041FA671C049B38B14B4A3C46801A06FA00F018430490EFE7D90644BF20228DF853201A0744BF2B228DF853206E
:4010000022782A2A03D0079A00210A200BE0039A111D12680391002A10DA524243F00200079204900BE027463B780134303B092B03D800FB02320121F5E701B107923B7850
:401040002E2B1ED17B782A2B0AD1039B02371A1D1B680392002BB8BF4FF0FF33059310E0002319460593781C0A2407463A780130303A092A03D804FB01210123F5E703B1EB
:40108000059103223978224800F0E6F940B14023CBEB000003FA00F0049B013718430490397806221B487E1C8DF8281000F0D4F988B1194B33B9039B073323F007030833C5
:4010C000039314E003AB00932A46144B04A94046AFF3008007E003AB00932A460F4B04A9404600F093F8B0F1FF3F824603D0099B5344099342E7AB895B0601D4099801E0FB
:401100004FF0FF301DB0BDE8F08F00BF541800005A1800005E18000000000000850E00002DE9F04791461F460A698B6806469342B8BF1346C9F8003091F843200C46DDF8C6
:40114000208012B10133C9F800302368990642BFD9F800300233C9F80030256815F0060510D104F1190A07E00123524639463046C04701301AD00135E368D9F800209B1A1E
:401180009D42F1DB94F843302268003318BF012392060FD5E118302081F843005A1C94F845102244023382F8431003E04FF0FF30BDE8F08704F1430239463046C0470130B9
:4011C000F4D02268D9F80050E36802F00602042A08BF5D1B2269A3680CBF25EAE57500259342C4BF9B1AED184FF000091A344D4509D00123224639463046C0470130D5D06E
:4012000009F10109F3E70020BDE8F0872DE9F04317460A7E85B06E2A984606460C460C9B01F1430E00F0AE8011D8632A22D009D8002A00F0BB80582A40F0CA8081F845209D
:40124000834955E0642A1ED0692A1CD0C0E0732A00F0B08009D86F2A2ED0702A40F0B8800A6842F020020A603EE0752A24D0782A3AD0ADE01A6801F14205111D19601368A4
:4012800084F84230A8E021681A6811F0800F02D0111D196008E011F0400F02F10401196002D0B2F9003000E01368002B3CDA2D225B4284F8432037E021681A6811F0800F35
:4012C00002D0111D196007E011F0400F02F10401196001D0138800E01368227E5C496F2A14BF0A2208221BE078225A4984F845202268186812F0800F00F104051D6003D100
:40130000550601D5038800E00368D00744BF42F0200222601BB9226822F0200222601022002084F8430001E049490A226568002DA56008DB206820F0040020602BB9002D23
:401340007DD175460CE0002B79D07546B3FBF2F002FB1033CB5C05F8013D03460028F5D1082A0BD12368DA0708D5236962689A42DEBF302305F8013C05F1FF35C5EB0E0342
:4013800023612EE008681A6810F0800F496903D0101D1860136808E010F0400F02F104001860136801D0198000E0196000232361754616E01A68111D1960156800216268A8
:4013C000284600F049F808B1401B6060636804E004F1420584F8422001232361002384F84330CDF800803B4603AA21463046FFF797FE013002D14FF0FF3026E023692A46A8
:4014000039463046C0470130F5D023689B0710D5002504F1190907E001234A4639463046C0470130E7D00135E368039A9B1A9D42F2DBE068039B9842B8BF184605E00B7871
:4014400004F1420584F842308AE705B0BDE8F083651800007618000010B5C9B202449042034605D01C7801308C42F8D1184610BD002010BD884210B501EB020301D8421E56
:401480000BE09842FBD28118D21AD34204D013F8014D01F8014DF8E710BD994204D011F8014B02F8014FF8E710BD000038B50546002944D051F8043C0C1F002BB8BFE4181F
:4014C00000F0D4F81E4A1368114613B96360146030E0A3420DD92268A018834201BF18685B681218226063600C6023E0A24203D813465A68002AF9D118681918A1420BD1F2
:401500002168014458188242196013D110685268014419605A600DE002D90C232B6009E021686018824201BF106852680918216062605C602846BDE8384000F098B838BDA0
:40154000DC85FF1F70B5CD1C25F0030508350C2D38BF0C25002D064601DBA94202D90C23336046E000F082F8234B1C681A462146A1B10B685B1B0ED40B2B03D90B60CC187F
:40158000CD501EE08C420BBF63684B681360636018BF0C4615E00C464968E9E7174C23681BB9304600F052F820602946304600F04DF8431C18D0C41C24F00304A0420DD1C5
:4015C0002560304600F053F804F10B00231D20F00700C31A0ED05A42E25070BD211A304600F034F80130EBD10C233360304600F03EF8002070BD00BFDC85FF1FD885FF1F8A
:40160000F8B5074615460E4621B91146BDE8F840FFF798BF1AB9FFF749FF2846F8BD00F027F885420ED929463846FFF78BFF044650B131462A46FFF7B3FB31463846FFF787
:4016400035FF01E03046F8BD2046F8BD38B5064C0023054608462360FFF788F9431C02D1236803B12B6038BDE089FF1F7047704751F8040C0028BEBF091851F8043CC018B4
:40168000043870470000000000DEADBEEF000000FFFFFF00C0A80146C0A88946436F6E74656E742D547970653A20746578742F68746D6C3B20636861727365743D555446FE
:4016C0002D380A436F6E74656E742D4C656E6774683A2025640D0A0D0A000000485454502F312E3120323030204F4B0A000000003C21646F63747970652068746D6C3E0A19
:401700003C68746D6C3E3C6D65746120687474702D65717569763D22726566726573682220636F6E74656E743D223130223E3C626F64793E0A3C68313E4F6C6475696E6F96
:40174000203138303220424147454C5320536572766572204F6E2057697A6E65742057353530303C2F68313E0A3C2F626F64793E3C2F68746D6C3E0A0000000052656D6FBC
:40178000746520636F6E6E656374696F6E2E2E2E0D0A0000436C6F73696E672074686520736F636B65740D0A00000000536F636B6574206F70656E20616E64206C69737405
:4017C000656E696E670D0A00257300004572726F72206F70656E696E672074686520736F636B65740D0A000057616974696E6720666F7220636F6E6E656374696F6E2E2E08
:401800002E0D0A00446174612073656E740D0A00005100401000305100404000F0510040100000000140001000140140800000150140000700400140000A004C0140000228
:401840000050014020000000801401405801004880004300232D302B2000686C4C0065666745464700303132333435363738394142434445460030313233343536373839E0
:401880006162636465660000F8B500BFF8BC08BC9E4670474D000000E9090000F8B500BFF8BC08BC9E46704729000000C0180000C880FF1FE8000000380800000000000007
:4018C000000000000000000202000000010203000100000202000000050607000200000202000000090A0B0003000002020000000D0E0F0004000002020000001112130034
:401900000500000202000000151617000600000202000000191A1B0007000002020000001D1E1F00E889FF1F675000400C000000070000000000E02EC05D000018000000C3
:4019400000366E0100000000000000000000000000000000000000000000000000000000000000005218000000000000000000000000000000000000000000000000000058
:401980000000000000000000000000000000000000000000000000000000000000000000000000004C81FF1F0000000000000000000000000000000000000000000000003C
:4019C00000000000000000000000000000000000000000000000000000000000000000000000000000000000000000000000000000000000000000000000000000000000E7
:401A000000000000000000000000000000000000000000000000000000000000000000000000000000000000000000000000000000000000000000000000000000000000A6
:401A40000000000000000000000000000000000000000000000000000000000000000000000000000000000000000000000000000000000000000000000000000000000066
:401A80000000000000000000000000000000000000000000000000000000000000000000000000000000000000000000000000000000000000000000000000000000000026
:020000040003F7
:0200000480007A
:400000000145004001520040016500403D150140301601401F1701400A4901400250014065026001850F0402051406020D020E2917151D841E421F2024022514269C2708C4
:400040002E012F083510368837013D203E063F8045A047084E0A4F0455025660574466106E056F1D76028A028D048F219641970699109A109E629F15A120A514A615A704E3
:40008000AB21B240B310B404C0F0C2F0C470CAA0CCF0CEF0D070D230D820E210E420EE40004005330680074C084209550A080BAA0DE01002120D146215021614170D18114D
:4000C00019491A221B961C8D200D2280248D288D2C8D300F32803470350F37F039803A223B203E045409580459045B045F01860194029A03AA03B403D440D804DB04DF01C6
:40010000000405100660072009240D020E29112012301602171518041D36254026202708351037083DA85E425F14610463096702C074C2F6C4F2CC60CE70D6F0D81E170110
:4001400072207C808B018C809A20B620C420DC80DE2010011A010000049A000001980002562109D884020000609800020A13106407FC3803843800C0049A80008000040061
:40018000840200980000000008007F13020F80E0080000A00000510032061000050EDCBF3DFFFFFF2200F008040000000000022404040404000000010000C0004001101176
:4001C000C001001140014001000000000000000000000000000000009800229D8500050000000000000B0B00000000000002020000000000000000000000000000000000B0
:4002000000000000000000000000000000000000000000000000000000000000000000000000000000000000000000000000000000000000000000000000000000000000BE
:40024000000000000000000000000000000000000000000000000000000000000000000000000000000000000000000000000000000000000000000000000000000000007E
:40028000000000000000000000000000000000000000000000000000000000000000000000000000000000000000000000000000000000000000000000000000000000003E
:4002C00000000000000000000000000000000000000000000000000000000000000000000000000000000000000000000000000000000000000000000000000000000000FE
:0200000490006A
:0400000000004005B7
:0200000490105A
:04000000BC90ACAF55
:0200000490303A
:02000000A9FC59
:0200000490402A
:4000000000000000000000000000000000000000000000000000000000000000000000000000000000000000000000000000000000000000000000000000000000000000C0
:400040000000000000000000000000000000000000000000000000000000000000000000000000000000000000000000000000000000000000000000000000000000000080
:400080000000000000000000000000000000000000000000000000000000000000000000000000000000000000000000000000000000000000000000000000000000000040
:4000C0000000000000000000000000000000000000000000000000000000000000000000000000000000000000000000000000000000000000000000000000000000000000
:0200000490501A
:0C00000000012E16106900012E1FBA65C9
:00000001FF